{
  "address": "0x9b67374857503dA14209844598B0e65fA022Ac1B",
  "abi": [
    {
      "anonymous": false,
      "inputs": [
        {
          "indexed": false,
          "internalType": "address",
          "name": "claimer",
          "type": "address"
        },
        {
          "components": [
            {
              "internalType": "string",
              "name": "propertyType",
              "type": "string"
            },
            {
              "internalType": "string",
              "name": "propertyId",
              "type": "string"
            },
            {
              "internalType": "string",
              "name": "method",
              "type": "string"
            },
            {
              "internalType": "string",
              "name": "evidence",
              "type": "string"
            }
          ],
          "indexed": false,
          "internalType": "struct IClaimRegistry.Claim",
          "name": "claim",
          "type": "tuple"
        }
      ],
      "name": "ClaimRemoved",
      "type": "event"
    },
    {
      "anonymous": false,
      "inputs": [
        {
          "indexed": false,
          "internalType": "address",
          "name": "claimer",
          "type": "address"
        },
        {
          "components": [
            {
              "internalType": "string",
              "name": "propertyType",
              "type": "string"
            },
            {
              "internalType": "string",
              "name": "propertyId",
              "type": "string"
            },
            {
              "internalType": "string",
              "name": "method",
              "type": "string"
            },
            {
              "internalType": "string",
              "name": "evidence",
              "type": "string"
            }
          ],
          "indexed": false,
          "internalType": "struct IClaimRegistry.Claim",
          "name": "claim",
          "type": "tuple"
        }
      ],
      "name": "ClaimUpdated",
      "type": "event"
    },
    {
      "inputs": [
        {
          "internalType": "address",
          "name": "",
          "type": "address"
        },
        {
          "internalType": "uint256",
          "name": "",
          "type": "uint256"
        }
      ],
      "name": "allClaimKeys",
      "outputs": [
        {
          "internalType": "uint256",
          "name": "",
          "type": "uint256"
        }
      ],
      "stateMutability": "view",
      "type": "function"
    },
    {
      "inputs": [
        {
          "internalType": "uint256",
          "name": "",
          "type": "uint256"
        }
      ],
      "name": "allClaims",
      "outputs": [
        {
          "internalType": "string",
          "name": "propertyType",
          "type": "string"
        },
        {
          "internalType": "string",
          "name": "propertyId",
          "type": "string"
        },
        {
          "internalType": "string",
          "name": "method",
          "type": "string"
        },
        {
          "internalType": "string",
          "name": "evidence",
          "type": "string"
        }
      ],
      "stateMutability": "view",
      "type": "function"
    },
    {
      "inputs": [
        {
          "internalType": "address",
          "name": "account",
          "type": "address"
        }
      ],
      "name": "listClaims",
      "outputs": [
        {
          "internalType": "uint256[]",
          "name": "",
          "type": "uint256[]"
        }
      ],
      "stateMutability": "view",
      "type": "function"
    },
    {
      "inputs": [
        {
          "internalType": "string",
          "name": "propertyType",
          "type": "string"
        },
        {
          "internalType": "string",
          "name": "propertyId",
          "type": "string"
        },
        {
          "internalType": "string",
          "name": "method",
          "type": "string"
        },
        {
          "internalType": "string",
          "name": "evidence",
          "type": "string"
        }
      ],
      "name": "register",
      "outputs": [],
      "stateMutability": "nonpayable",
      "type": "function"
    },
    {
      "inputs": [
        {
          "internalType": "string",
          "name": "propertyType",
          "type": "string"
        },
        {
          "internalType": "string",
          "name": "propertyId",
          "type": "string"
        },
        {
          "internalType": "string",
          "name": "method",
          "type": "string"
        }
      ],
      "name": "remove",
      "outputs": [],
      "stateMutability": "nonpayable",
      "type": "function"
    }
  ],
  "transactionHash": "0x80a68835e1e71ea0c9d6c292dc3437200e4eed5ffab0e2fb82dc52a73d94c87b",
  "args": [],
  "solcInputHash": "d5d9b6e4d78bb101e0b82ba6bd1d00a0",
  "bytecode": "0x608060405234801561001057600080fd5b506112df806100206000396000f3fe608060405234801561001057600080fd5b50600436106100675760003560e01c80631a8598a7116100505780631a8598a7146100aa578063c3552867146100cd578063da40fa77146100ee57600080fd5b806305562ae81461006c5780630e24c52c14610095575b600080fd5b61007f61007a366004610d0a565b610101565b60405161008c9190611118565b60405180910390f35b6100a86100a3366004610dde565b610178565b005b6100bd6100b8366004610e8b565b6103bd565b60405161008c949392919061115c565b6100e06100db366004610d2c565b610605565b60405190815260200161008c565b6100a86100fc366004610d56565b610636565b73ffffffffffffffffffffffffffffffffffffffff81166000908152602081815260409182902080548351818402810184019094528084526060939283018282801561016c57602002820191906000526020600020905b815481526020019060010190808311610158575b50505050509050919050565b61018184610ab9565b156101bc5760405162461bcd60e51b8152602060048201526006602482015265434c4d30303160d01b60448201526064015b60405180910390fd5b6101c583610ab9565b156101fb5760405162461bcd60e51b815260206004820152600660248201526521a62698181960d11b60448201526064016101b3565b600061020933868686610ada565b6000818152600160205260408120805492935090916102af919061022c906111fb565b80601f0160208091040260200160405190810160405280929190818152602001828054610258906111fb565b80156102a55780601f1061027a576101008083540402835291602001916102a5565b820191906000526020600020905b81548152906001019060200180831161028857829003601f168201915b5050505050610ab9565b600083815260016020908152604090912088519293506102d3929091890190610b7e565b50600082815260016020818152604090922087516102f993919092019190880190610b7e565b506000828152600160209081526040909120855161031f92600290920191870190610b7e565b506000828152600160209081526040909120845161034592600390920191860190610b7e565b50801561036d5733600090815260208181526040822080546001810182559083529120018290555b6000828152600160205260409081902090517f38913474ea29a22c6b686bcd567285304ab34843603996723b03f0c05e9355fc916103ad9133919061108c565b60405180910390a1505050505050565b6001602052600090815260409020805481906103d8906111fb565b80601f0160208091040260200160405190810160405280929190818152602001828054610404906111fb565b80156104515780601f1061042657610100808354040283529160200191610451565b820191906000526020600020905b81548152906001019060200180831161043457829003601f168201915b505050505090806001018054610466906111fb565b80601f0160208091040260200160405190810160405280929190818152602001828054610492906111fb565b80156104df5780601f106104b4576101008083540402835291602001916104df565b820191906000526020600020905b8154815290600101906020018083116104c257829003601f168201915b5050505050908060020180546104f4906111fb565b80601f0160208091040260200160405190810160405280929190818152602001828054610520906111fb565b801561056d5780601f106105425761010080835404028352916020019161056d565b820191906000526020600020905b81548152906001019060200180831161055057829003601f168201915b505050505090806003018054610582906111fb565b80601f01602080910402602001604051908101604052809291908181526020018280546105ae906111fb565b80156105fb5780601f106105d0576101008083540402835291602001916105fb565b820191906000526020600020905b8154815290600101906020018083116105de57829003601f168201915b5050505050905084565b6000602052816000526040600020818154811061062157600080fd5b90600052602060002001600091509150505481565b61063f83610ab9565b156106755760405162461bcd60e51b8152602060048201526006602482015265434c4d30303160d01b60448201526064016101b3565b61067e82610ab9565b156106b45760405162461bcd60e51b815260206004820152600660248201526521a62698181960d11b60448201526064016101b3565b60006106c233858585610ada565b3360009081526020819052604081205491925081905b8281101561072f573360009081526020819052604090208054859190839081106107045761070461127d565b9060005260206000200154141561071d5780915061072f565b8061072781611236565b9150506106d8565b5081811015610ab15760008381526001602052604080822081516080810190925280548290829061075f906111fb565b80601f016020809104026020016040519081016040528092919081815260200182805461078b906111fb565b80156107d85780601f106107ad576101008083540402835291602001916107d8565b820191906000526020600020905b8154815290600101906020018083116107bb57829003601f168201915b505050505081526020016001820180546107f1906111fb565b80601f016020809104026020016040519081016040528092919081815260200182805461081d906111fb565b801561086a5780601f1061083f5761010080835404028352916020019161086a565b820191906000526020600020905b81548152906001019060200180831161084d57829003601f168201915b50505050508152602001600282018054610883906111fb565b80601f01602080910402602001604051908101604052809291908181526020018280546108af906111fb565b80156108fc5780601f106108d1576101008083540402835291602001916108fc565b820191906000526020600020905b8154815290600101906020018083116108df57829003601f168201915b50505050508152602001600382018054610915906111fb565b80601f0160208091040260200160405190810160405280929190818152602001828054610941906111fb565b801561098e5780601f106109635761010080835404028352916020019161098e565b820191906000526020600020905b81548152906001019060200180831161097157829003601f168201915b5050509190925250505060008581526001602052604081209192506109b38282610c02565b6109c1600183016000610c02565b6109cf600283016000610c02565b6109dd600383016000610c02565b50503360009081526020819052604090206109f96001856111b4565b81548110610a0957610a0961127d565b6000918252602080832090910154338352908290526040909120805484908110610a3557610a3561127d565b60009182526020808320909101929092553381529081905260409020805480610a6057610a60611267565b600190038181906000526020600020016000905590557f288f7cec6535cec42094ddba6c823fe9dc1507b8b280861eebdf01dcbecdbba23382604051610aa7929190610ff1565b60405180910390a1505b505050505050565b6000610ad48260405180602001604052806000815250610b14565b92915050565b600084848484604051602001610af39493929190610f70565b60408051601f19818403018152919052805160209091012095945050505050565b60008151835114610b2757506000610ad4565b81604051602001610b389190610fd5565b6040516020818303038152906040528051906020012083604051602001610b5f9190610fd5565b6040516020818303038152906040528051906020012014905092915050565b828054610b8a906111fb565b90600052602060002090601f016020900481019282610bac5760008555610bf2565b82601f10610bc557805160ff1916838001178555610bf2565b82800160010185558215610bf2579182015b82811115610bf2578251825591602001919060010190610bd7565b50610bfe929150610c3f565b5090565b508054610c0e906111fb565b6000825580601f10610c1e575050565b601f016020900490600052602060002090810190610c3c9190610c3f565b50565b5b80821115610bfe5760008155600101610c40565b803573ffffffffffffffffffffffffffffffffffffffff81168114610c7857600080fd5b919050565b600082601f830112610c8e57600080fd5b813567ffffffffffffffff80821115610ca957610ca9611293565b604051601f8301601f19908116603f01168101908282118183101715610cd157610cd1611293565b81604052838152866020858801011115610cea57600080fd5b836020870160208301376000602085830101528094505050505092915050565b600060208284031215610d1c57600080fd5b610d2582610c54565b9392505050565b60008060408385031215610d3f57600080fd5b610d4883610c54565b946020939093013593505050565b600080600060608486031215610d6b57600080fd5b833567ffffffffffffffff80821115610d8357600080fd5b610d8f87838801610c7d565b94506020860135915080821115610da557600080fd5b610db187838801610c7d565b93506040860135915080821115610dc757600080fd5b50610dd486828701610c7d565b9150509250925092565b60008060008060808587031215610df457600080fd5b843567ffffffffffffffff80821115610e0c57600080fd5b610e1888838901610c7d565b95506020870135915080821115610e2e57600080fd5b610e3a88838901610c7d565b94506040870135915080821115610e5057600080fd5b610e5c88838901610c7d565b93506060870135915080821115610e7257600080fd5b50610e7f87828801610c7d565b91505092959194509250565b600060208284031215610e9d57600080fd5b5035919050565b60008151808452610ebc8160208601602086016111cb565b601f01601f19169290920160200192915050565b8054600090600181811c9080831680610eea57607f831692505b6020808410821415610f0c57634e487b7160e01b600052602260045260246000fd5b83885260208801828015610f275760018114610f3857610f63565b60ff19871682528282019750610f63565b60008981526020902060005b87811015610f5d57815484820152908601908401610f44565b83019850505b5050505050505092915050565b6bffffffffffffffffffffffff198560601b16815260008451610f9a8160148501602089016111cb565b845190830190610fb18160148401602089016111cb565b8451910190610fc78160148401602088016111cb565b016014019695505050505050565b60008251610fe78184602087016111cb565b9190910192915050565b73ffffffffffffffffffffffffffffffffffffffff8316815260406020820152600082516080604084015261102960c0840182610ea4565b90506020840151603f19808584030160608601526110478383610ea4565b925060408601519150808584030160808601526110648383610ea4565b925060608601519150808584030160a0860152506110828282610ea4565b9695505050505050565b73ffffffffffffffffffffffffffffffffffffffff83168152604060208201526080604082015260006110c260c0830184610ed0565b603f19808483030160608501526110dc8260018701610ed0565b9150808483030160808501526110f58260028701610ed0565b9150808483030160a08501525061110f8160038601610ed0565b95945050505050565b6020808252825182820181905260009190848201906040850190845b8181101561115057835183529284019291840191600101611134565b50909695505050505050565b60808152600061116f6080830187610ea4565b82810360208401526111818187610ea4565b905082810360408401526111958186610ea4565b905082810360608401526111a98185610ea4565b979650505050505050565b6000828210156111c6576111c6611251565b500390565b60005b838110156111e65781810151838201526020016111ce565b838111156111f5576000848401525b50505050565b600181811c9082168061120f57607f821691505b6020821081141561123057634e487b7160e01b600052602260045260246000fd5b50919050565b600060001982141561124a5761124a611251565b5060010190565b634e487b7160e01b600052601160045260246000fd5b634e487b7160e01b600052603160045260246000fd5b634e487b7160e01b600052603260045260246000fd5b634e487b7160e01b600052604160045260246000fdfea26469706673582212201feb6d53372159f93f0a588417a7dd08b0569c214ead952a388dc92dff337d1c64736f6c63430008060033",
  "devdoc": {
    "author": "Shoya Yanagisawa - <shoya.yanagisawa@bridges.inc>",
    "kind": "dev",
    "methods": {
      "listClaims(address)": {
        "details": "List keys of claim and a reference by an account",
        "params": {
          "account": "account of claimer"
        },
        "returns": {
          "_0": "[[claimKeys]]"
        }
      },
      "register(string,string,string,string)": {
        "details": "Register a claim of ownership of property with evidence.",
        "params": {
          "evidence": "evidence of ownership",
          "method": "method of ownership verification",
          "propertyId": "ID of property",
          "propertyType": "type of property"
        }
      },
      "remove(string,string,string)": {
        "details": "Remove a claim of ownership.",
        "params": {
          "method": "method of ownership verification",
          "propertyId": "ID of property",
          "propertyType": "type of property"
        }
      }
    },
    "stateVariables": {
      "allClaimKeys": {
        "details": "Maps address with the claimKeys."
      },
      "allClaims": {
        "details": "Maps claimKey<uint256: hash of address, propertyType, propertyId, method> with the claim."
      }
    },
    "title": "Claimer - manages the posted items and donation flows.",
    "version": 1
  },
  "userdoc": {
    "kind": "user",
    "methods": {},
    "version": 1
  },
  "storageLayout": {
    "storage": [
      {
        "astId": 12,
        "contract": "contracts/ClaimRegistry.sol:ClaimRegistry",
        "label": "allClaimKeys",
        "offset": 0,
        "slot": "0",
        "type": "t_mapping(t_address,t_array(t_uint256)dyn_storage)"
      },
      {
        "astId": 18,
        "contract": "contracts/ClaimRegistry.sol:ClaimRegistry",
        "label": "allClaims",
        "offset": 0,
        "slot": "1",
        "type": "t_mapping(t_uint256,t_struct(Claim)345_storage)"
      }
    ],
    "types": {
      "t_address": {
        "encoding": "inplace",
        "label": "address",
        "numberOfBytes": "20"
      },
      "t_array(t_uint256)dyn_storage": {
        "base": "t_uint256",
        "encoding": "dynamic_array",
        "label": "uint256[]",
        "numberOfBytes": "32"
      },
      "t_mapping(t_address,t_array(t_uint256)dyn_storage)": {
        "encoding": "mapping",
        "key": "t_address",
        "label": "mapping(address => uint256[])",
        "numberOfBytes": "32",
        "value": "t_array(t_uint256)dyn_storage"
      },
      "t_mapping(t_uint256,t_struct(Claim)345_storage)": {
        "encoding": "mapping",
        "key": "t_uint256",
        "label": "mapping(uint256 => struct IClaimRegistry.Claim)",
        "numberOfBytes": "32",
        "value": "t_struct(Claim)345_storage"
      },
      "t_string_storage": {
        "encoding": "bytes",
        "label": "string",
        "numberOfBytes": "32"
      },
      "t_struct(Claim)345_storage": {
        "encoding": "inplace",
        "label": "struct IClaimRegistry.Claim",
        "members": [
          {
            "astId": 338,
            "contract": "contracts/ClaimRegistry.sol:ClaimRegistry",
            "label": "propertyType",
            "offset": 0,
            "slot": "0",
            "type": "t_string_storage"
          },
          {
            "astId": 340,
            "contract": "contracts/ClaimRegistry.sol:ClaimRegistry",
            "label": "propertyId",
            "offset": 0,
            "slot": "1",
            "type": "t_string_storage"
          },
          {
            "astId": 342,
            "contract": "contracts/ClaimRegistry.sol:ClaimRegistry",
            "label": "method",
            "offset": 0,
            "slot": "2",
            "type": "t_string_storage"
          },
          {
            "astId": 344,
            "contract": "contracts/ClaimRegistry.sol:ClaimRegistry",
            "label": "evidence",
            "offset": 0,
            "slot": "3",
            "type": "t_string_storage"
          }
        ],
        "numberOfBytes": "128"
      },
      "t_uint256": {
        "encoding": "inplace",
        "label": "uint256",
        "numberOfBytes": "32"
      }
    }
  }
}