{
  "address": "0x886A9591D624b5360d22B32C5866387340803593",
  "abi": [
    {
      "anonymous": false,
      "inputs": [
        {
          "indexed": false,
          "internalType": "address",
          "name": "claimer",
          "type": "address"
        }
      ],
      "name": "ClaimRefRemoved",
      "type": "event"
    },
    {
      "anonymous": false,
      "inputs": [
        {
          "indexed": false,
          "internalType": "address",
          "name": "claimer",
          "type": "address"
        },
        {
          "components": [
            {
              "internalType": "string",
              "name": "ref",
              "type": "string"
            },
            {
              "internalType": "string",
              "name": "key",
              "type": "string"
            }
          ],
          "indexed": false,
          "internalType": "struct IClaimRegistry.ClaimRef",
          "name": "ref",
          "type": "tuple"
        }
      ],
      "name": "ClaimRefUpdated",
      "type": "event"
    },
    {
      "anonymous": false,
      "inputs": [
        {
          "indexed": false,
          "internalType": "address",
          "name": "claimer",
          "type": "address"
        },
        {
          "indexed": false,
          "internalType": "string",
          "name": "propertyType",
          "type": "string"
        },
        {
          "indexed": false,
          "internalType": "string",
          "name": "propertyId",
          "type": "string"
        }
      ],
      "name": "ClaimRemoved",
      "type": "event"
    },
    {
      "anonymous": false,
      "inputs": [
        {
          "indexed": false,
          "internalType": "address",
          "name": "claimer",
          "type": "address"
        },
        {
          "components": [
            {
              "internalType": "string",
              "name": "propertyType",
              "type": "string"
            },
            {
              "internalType": "string",
              "name": "propertyId",
              "type": "string"
            },
            {
              "internalType": "string",
              "name": "evidence",
              "type": "string"
            },
            {
              "internalType": "string",
              "name": "method",
              "type": "string"
            }
          ],
          "indexed": false,
          "internalType": "struct IClaimRegistry.Claim",
          "name": "claim",
          "type": "tuple"
        }
      ],
      "name": "ClaimUpdated",
      "type": "event"
    },
    {
      "inputs": [
        {
          "internalType": "address",
          "name": "",
          "type": "address"
        },
        {
          "internalType": "uint256",
          "name": "",
          "type": "uint256"
        }
      ],
      "name": "allClaimKeys",
      "outputs": [
        {
          "internalType": "uint256",
          "name": "",
          "type": "uint256"
        }
      ],
      "stateMutability": "view",
      "type": "function"
    },
    {
      "inputs": [
        {
          "internalType": "address",
          "name": "",
          "type": "address"
        }
      ],
      "name": "allClaimRefs",
      "outputs": [
        {
          "internalType": "string",
          "name": "ref",
          "type": "string"
        },
        {
          "internalType": "string",
          "name": "key",
          "type": "string"
        }
      ],
      "stateMutability": "view",
      "type": "function"
    },
    {
      "inputs": [
        {
          "internalType": "uint256",
          "name": "",
          "type": "uint256"
        }
      ],
      "name": "allClaims",
      "outputs": [
        {
          "internalType": "string",
          "name": "propertyType",
          "type": "string"
        },
        {
          "internalType": "string",
          "name": "propertyId",
          "type": "string"
        },
        {
          "internalType": "string",
          "name": "evidence",
          "type": "string"
        },
        {
          "internalType": "string",
          "name": "method",
          "type": "string"
        }
      ],
      "stateMutability": "view",
      "type": "function"
    },
    {
      "inputs": [
        {
          "internalType": "address",
          "name": "account",
          "type": "address"
        }
      ],
      "name": "listClaims",
      "outputs": [
        {
          "internalType": "uint256[]",
          "name": "",
          "type": "uint256[]"
        },
        {
          "internalType": "string[2]",
          "name": "",
          "type": "string[2]"
        }
      ],
      "stateMutability": "view",
      "type": "function"
    },
    {
      "inputs": [
        {
          "internalType": "string",
          "name": "propertyType",
          "type": "string"
        },
        {
          "internalType": "string",
          "name": "propertyId",
          "type": "string"
        },
        {
          "internalType": "string",
          "name": "evidence",
          "type": "string"
        },
        {
          "internalType": "string",
          "name": "method",
          "type": "string"
        }
      ],
      "name": "register",
      "outputs": [],
      "stateMutability": "nonpayable",
      "type": "function"
    },
    {
      "inputs": [
        {
          "internalType": "string",
          "name": "ref",
          "type": "string"
        },
        {
          "internalType": "string",
          "name": "key",
          "type": "string"
        }
      ],
      "name": "registerRef",
      "outputs": [],
      "stateMutability": "nonpayable",
      "type": "function"
    },
    {
      "inputs": [
        {
          "internalType": "string",
          "name": "propertyType",
          "type": "string"
        },
        {
          "internalType": "string",
          "name": "propertyId",
          "type": "string"
        },
        {
          "internalType": "string",
          "name": "method",
          "type": "string"
        }
      ],
      "name": "remove",
      "outputs": [],
      "stateMutability": "nonpayable",
      "type": "function"
    },
    {
      "inputs": [],
      "name": "removeRef",
      "outputs": [],
      "stateMutability": "nonpayable",
      "type": "function"
    }
  ],
  "transactionHash": "0x586def2cd9077143876db5e181c1b97cf3e436b38d3801e575ee14f6bdee61be",
  "args": [],
  "solcInputHash": "72aac20f5b54fc02a17af6ae293096d3",
  "bytecode": "0x608060405234801561001057600080fd5b5061151c806100206000396000f3fe608060405234801561001057600080fd5b50600436106100885760003560e01c8063387f5d3b1161005b578063387f5d3b14610110578063c0a9f9d214610118578063c35528671461012b578063da40fa771461014c57600080fd5b806305562ae81461008d5780630e24c52c146100b75780630f937ac3146100cc5780631a8598a7146100ed575b600080fd5b6100a061009b366004610ea6565b61015f565b6040516100ae9291906112ef565b60405180910390f35b6100ca6100c5366004610fde565b610330565b005b6100df6100da366004610ea6565b610575565b6040516100ae929190611374565b6101006100fb36600461108b565b6106a1565b6040516100ae9493929190611399565b6100ca6108e9565b6100ca610126366004610ef2565b610913565b61013e610139366004610ec8565b6109f1565b6040519081526020016100ae565b6100ca61015a366004610f56565b610a22565b6060610169610d00565b6001600160a01b0383166000908152602081815260408083208151808301835260029093529220805482919061019e90611438565b80601f01602080910402602001604051908101604052809291908181526020018280546101ca90611438565b80156102175780601f106101ec57610100808354040283529160200191610217565b820191906000526020600020905b8154815290600101906020018083116101fa57829003601f168201915b5050505050815260200160026000876001600160a01b03166001600160a01b03168152602001908152602001600020600101805461025490611438565b80601f016020809104026020016040519081016040528092919081815260200182805461028090611438565b80156102cd5780601f106102a2576101008083540402835291602001916102cd565b820191906000526020600020905b8154815290600101906020018083116102b057829003601f168201915b50505050508152508180548060200260200160405190810160405280929190818152602001828054801561032057602002820191906000526020600020905b81548152602001906001019080831161030c575b5050505050915091509150915091565b61033984610c3b565b156103745760405162461bcd60e51b8152602060048201526006602482015265434c4d30303160d01b60448201526064015b60405180910390fd5b61037d83610c3b565b156103b35760405162461bcd60e51b815260206004820152600660248201526521a62698181960d11b604482015260640161036b565b60006103c133868685610c5c565b60008181526001602052604081208054929350909161046791906103e490611438565b80601f016020809104026020016040519081016040528092919081815260200182805461041090611438565b801561045d5780601f106104325761010080835404028352916020019161045d565b820191906000526020600020905b81548152906001019060200180831161044057829003601f168201915b5050505050610c3b565b6000838152600160209081526040909120885192935061048b929091890190610d27565b50600082815260016020818152604090922087516104b193919092019190880190610d27565b50600082815260016020908152604090912085516104d792600290920191870190610d27565b50600082815260016020908152604090912084516104fd92600390920191860190610d27565b5080156105255733600090815260208181526040822080546001810182559083529120018290555b6000828152600160205260409081902090517f38913474ea29a22c6b686bcd567285304ab34843603996723b03f0c05e9355fc9161056591339190611279565b60405180910390a1505050505050565b60026020526000908152604090208054819061059090611438565b80601f01602080910402602001604051908101604052809291908181526020018280546105bc90611438565b80156106095780601f106105de57610100808354040283529160200191610609565b820191906000526020600020905b8154815290600101906020018083116105ec57829003601f168201915b50505050509080600101805461061e90611438565b80601f016020809104026020016040519081016040528092919081815260200182805461064a90611438565b80156106975780601f1061066c57610100808354040283529160200191610697565b820191906000526020600020905b81548152906001019060200180831161067a57829003601f168201915b5050505050905082565b6001602052600090815260409020805481906106bc90611438565b80601f01602080910402602001604051908101604052809291908181526020018280546106e890611438565b80156107355780601f1061070a57610100808354040283529160200191610735565b820191906000526020600020905b81548152906001019060200180831161071857829003601f168201915b50505050509080600101805461074a90611438565b80601f016020809104026020016040519081016040528092919081815260200182805461077690611438565b80156107c35780601f10610798576101008083540402835291602001916107c3565b820191906000526020600020905b8154815290600101906020018083116107a657829003601f168201915b5050505050908060020180546107d890611438565b80601f016020809104026020016040519081016040528092919081815260200182805461080490611438565b80156108515780601f1061082657610100808354040283529160200191610851565b820191906000526020600020905b81548152906001019060200180831161083457829003601f168201915b50505050509080600301805461086690611438565b80601f016020809104026020016040519081016040528092919081815260200182805461089290611438565b80156108df5780601f106108b4576101008083540402835291602001916108df565b820191906000526020600020905b8154815290600101906020018083116108c257829003601f168201915b5050505050905084565b6109116040518060200160405280600081525060405180602001604052806000815250610913565b565b336000908152600260209081526040909120835161093392850190610d27565b50336000908152600260209081526040909120825161095a92600190920191840190610d27565b5061096482610c3b565b8015610974575061097481610c3b565b156109b1576040513381527f209c90080992a7d98eab6016675da7fd54af9f510923cea453cb66d793c66762906020015b60405180910390a15050565b336000818152600260205260409081902090517f77701c707374125153cb279a5509b5ce7a416c3167f5060a07ebe9d680e7995b926109a592909161122f565b60006020528160005260406000208181548110610a0d57600080fd5b90600052602060002001600091509150505481565b610a2b83610c3b565b15610a615760405162461bcd60e51b8152602060048201526006602482015265434c4d30303160d01b604482015260640161036b565b610a6a82610c3b565b15610aa05760405162461bcd60e51b815260206004820152600660248201526521a62698181960d11b604482015260640161036b565b6000610aae33858585610c5c565b3360009081526020819052604081205491925081905b82811015610b1b57336000908152602081905260409020805485919083908110610af057610af06114ba565b90600052602060002001541415610b0957809150610b1b565b80610b1381611473565b915050610ac4565b5081811015610c3357600083815260016020526040812090610b3d8282610dab565b610b4b600183016000610dab565b610b59600283016000610dab565b610b67600383016000610dab565b5050336000908152602081905260409020610b836001846113f1565b81548110610b9357610b936114ba565b6000918252602080832090910154338352908290526040909120805483908110610bbf57610bbf6114ba565b60009182526020808320909101929092553381529081905260409020805480610bea57610bea6114a4565b600190038181906000526020600020016000905590557f2cab426b356a1e45c43f79a1c815849191e75495e013418b790347223685117f338787604051610565939291906111f1565b505050505050565b6000610c568260405180602001604052806000815250610c96565b92915050565b600084848484604051602001610c759493929190611170565b60408051601f19818403018152919052805160209091012095945050505050565b60008151835114610ca957506000610c56565b81604051602001610cba91906111d5565b6040516020818303038152906040528051906020012083604051602001610ce191906111d5565b6040516020818303038152906040528051906020012014905092915050565b60405180604001604052806002905b6060815260200190600190039081610d0f5790505090565b828054610d3390611438565b90600052602060002090601f016020900481019282610d555760008555610d9b565b82601f10610d6e57805160ff1916838001178555610d9b565b82800160010185558215610d9b579182015b82811115610d9b578251825591602001919060010190610d80565b50610da7929150610de8565b5090565b508054610db790611438565b6000825580601f10610dc7575050565b601f016020900490600052602060002090810190610de59190610de8565b50565b5b80821115610da75760008155600101610de9565b80356001600160a01b0381168114610e1457600080fd5b919050565b600082601f830112610e2a57600080fd5b813567ffffffffffffffff80821115610e4557610e456114d0565b604051601f8301601f19908116603f01168101908282118183101715610e6d57610e6d6114d0565b81604052838152866020858801011115610e8657600080fd5b836020870160208301376000602085830101528094505050505092915050565b600060208284031215610eb857600080fd5b610ec182610dfd565b9392505050565b60008060408385031215610edb57600080fd5b610ee483610dfd565b946020939093013593505050565b60008060408385031215610f0557600080fd5b823567ffffffffffffffff80821115610f1d57600080fd5b610f2986838701610e19565b93506020850135915080821115610f3f57600080fd5b50610f4c85828601610e19565b9150509250929050565b600080600060608486031215610f6b57600080fd5b833567ffffffffffffffff80821115610f8357600080fd5b610f8f87838801610e19565b94506020860135915080821115610fa557600080fd5b610fb187838801610e19565b93506040860135915080821115610fc757600080fd5b50610fd486828701610e19565b9150509250925092565b60008060008060808587031215610ff457600080fd5b843567ffffffffffffffff8082111561100c57600080fd5b61101888838901610e19565b9550602087013591508082111561102e57600080fd5b61103a88838901610e19565b9450604087013591508082111561105057600080fd5b61105c88838901610e19565b9350606087013591508082111561107257600080fd5b5061107f87828801610e19565b91505092959194509250565b60006020828403121561109d57600080fd5b5035919050565b600081518084526110bc816020860160208601611408565b601f01601f19169290920160200192915050565b8054600090600181811c90808316806110ea57607f831692505b602080841082141561110c57634e487b7160e01b600052602260045260246000fd5b83885260208801828015611127576001811461113857611163565b60ff19871682528282019750611163565b60008981526020902060005b8781101561115d57815484820152908601908401611144565b83019850505b5050505050505092915050565b6bffffffffffffffffffffffff198560601b1681526000845161119a816014850160208901611408565b8451908301906111b1816014840160208901611408565b84519101906111c7816014840160208801611408565b016014019695505050505050565b600082516111e7818460208701611408565b9190910192915050565b6001600160a01b038416815260606020820152600061121360608301856110a4565b828103604084015261122581856110a4565b9695505050505050565b6001600160a01b038316815260406020820152604080820152600061125760808301846110d0565b828103603f1901606084015261127081600186016110d0565b95945050505050565b6001600160a01b0383168152604060208201526080604082015260006112a260c08301846110d0565b603f19808483030160608501526112bc82600187016110d0565b9150808483030160808501526112d582600287016110d0565b9150808483030160a08501525061127081600386016110d0565b604080825283519082018190526000906020906060840190828701845b828110156113285781518452928401929084019060010161130c565b5050508381038285015280604081018660005b60028110156113665784830384526113548383516110a4565b9386019392509085019060010161133b565b509098975050505050505050565b60408152600061138760408301856110a4565b828103602084015261127081856110a4565b6080815260006113ac60808301876110a4565b82810360208401526113be81876110a4565b905082810360408401526113d281866110a4565b905082810360608401526113e681856110a4565b979650505050505050565b6000828210156114035761140361148e565b500390565b60005b8381101561142357818101518382015260200161140b565b83811115611432576000848401525b50505050565b600181811c9082168061144c57607f821691505b6020821081141561146d57634e487b7160e01b600052602260045260246000fd5b50919050565b60006000198214156114875761148761148e565b5060010190565b634e487b7160e01b600052601160045260246000fd5b634e487b7160e01b600052603160045260246000fd5b634e487b7160e01b600052603260045260246000fd5b634e487b7160e01b600052604160045260246000fdfea264697066735822122028bbb3292a301f4e74c8dcfd011c508b99361ab484f86f68bb9778655a09e8e364736f6c63430008060033",
  "devdoc": {
    "author": "Shoya Yanagisawa - <shoya.yanagisawa@bridges.inc>",
    "kind": "dev",
    "methods": {
      "listClaims(address)": {
        "details": "List keys of claim and a reference by an account",
        "params": {
          "account": "account of claimer"
        },
        "returns": {
          "_0": "[[claimKeys], [ref, key]]"
        }
      },
      "register(string,string,string,string)": {
        "details": "Register a claim of ownership of property with evidence.",
        "params": {
          "evidence": "evidence of ownership",
          "method": "method of ownership verification",
          "propertyId": "ID of property",
          "propertyType": "type of property"
        }
      },
      "registerRef(string,string)": {
        "details": "Register a reference of claims of ownership of property.",
        "params": {
          "key": "key of a claim in the reference",
          "ref": "type of reference"
        }
      },
      "remove(string,string,string)": {
        "details": "Remove a claim of ownership.",
        "params": {
          "method": "method of ownership verification",
          "propertyId": "ID of property",
          "propertyType": "type of property"
        }
      },
      "removeRef()": {
        "details": "Remove a reference of claims of ownership of property."
      }
    },
    "stateVariables": {
      "allClaimKeys": {
        "details": "Maps address with the claimKeys."
      },
      "allClaimRefs": {
        "details": "Maps address with the claim registry."
      },
      "allClaims": {
        "details": "Maps claimKey<uint256: hash of address, propertyType, propertyId, method> with the claim."
      }
    },
    "title": "Claimer - manages the posted items and donation flows.",
    "version": 1
  },
  "userdoc": {
    "kind": "user",
    "methods": {},
    "version": 1
  },
  "storageLayout": {
    "storage": [
      {
        "astId": 12,
        "contract": "contracts/ClaimRegistry.sol:ClaimRegistry",
        "label": "allClaimKeys",
        "offset": 0,
        "slot": "0",
        "type": "t_mapping(t_address,t_array(t_uint256)dyn_storage)"
      },
      {
        "astId": 18,
        "contract": "contracts/ClaimRegistry.sol:ClaimRegistry",
        "label": "allClaims",
        "offset": 0,
        "slot": "1",
        "type": "t_mapping(t_uint256,t_struct(Claim)420_storage)"
      },
      {
        "astId": 24,
        "contract": "contracts/ClaimRegistry.sol:ClaimRegistry",
        "label": "allClaimRefs",
        "offset": 0,
        "slot": "2",
        "type": "t_mapping(t_address,t_struct(ClaimRef)425_storage)"
      }
    ],
    "types": {
      "t_address": {
        "encoding": "inplace",
        "label": "address",
        "numberOfBytes": "20"
      },
      "t_array(t_uint256)dyn_storage": {
        "base": "t_uint256",
        "encoding": "dynamic_array",
        "label": "uint256[]",
        "numberOfBytes": "32"
      },
      "t_mapping(t_address,t_array(t_uint256)dyn_storage)": {
        "encoding": "mapping",
        "key": "t_address",
        "label": "mapping(address => uint256[])",
        "numberOfBytes": "32",
        "value": "t_array(t_uint256)dyn_storage"
      },
      "t_mapping(t_address,t_struct(ClaimRef)425_storage)": {
        "encoding": "mapping",
        "key": "t_address",
        "label": "mapping(address => struct IClaimRegistry.ClaimRef)",
        "numberOfBytes": "32",
        "value": "t_struct(ClaimRef)425_storage"
      },
      "t_mapping(t_uint256,t_struct(Claim)420_storage)": {
        "encoding": "mapping",
        "key": "t_uint256",
        "label": "mapping(uint256 => struct IClaimRegistry.Claim)",
        "numberOfBytes": "32",
        "value": "t_struct(Claim)420_storage"
      },
      "t_string_storage": {
        "encoding": "bytes",
        "label": "string",
        "numberOfBytes": "32"
      },
      "t_struct(Claim)420_storage": {
        "encoding": "inplace",
        "label": "struct IClaimRegistry.Claim",
        "members": [
          {
            "astId": 413,
            "contract": "contracts/ClaimRegistry.sol:ClaimRegistry",
            "label": "propertyType",
            "offset": 0,
            "slot": "0",
            "type": "t_string_storage"
          },
          {
            "astId": 415,
            "contract": "contracts/ClaimRegistry.sol:ClaimRegistry",
            "label": "propertyId",
            "offset": 0,
            "slot": "1",
            "type": "t_string_storage"
          },
          {
            "astId": 417,
            "contract": "contracts/ClaimRegistry.sol:ClaimRegistry",
            "label": "evidence",
            "offset": 0,
            "slot": "2",
            "type": "t_string_storage"
          },
          {
            "astId": 419,
            "contract": "contracts/ClaimRegistry.sol:ClaimRegistry",
            "label": "method",
            "offset": 0,
            "slot": "3",
            "type": "t_string_storage"
          }
        ],
        "numberOfBytes": "128"
      },
      "t_struct(ClaimRef)425_storage": {
        "encoding": "inplace",
        "label": "struct IClaimRegistry.ClaimRef",
        "members": [
          {
            "astId": 422,
            "contract": "contracts/ClaimRegistry.sol:ClaimRegistry",
            "label": "ref",
            "offset": 0,
            "slot": "0",
            "type": "t_string_storage"
          },
          {
            "astId": 424,
            "contract": "contracts/ClaimRegistry.sol:ClaimRegistry",
            "label": "key",
            "offset": 0,
            "slot": "1",
            "type": "t_string_storage"
          }
        ],
        "numberOfBytes": "64"
      },
      "t_uint256": {
        "encoding": "inplace",
        "label": "uint256",
        "numberOfBytes": "32"
      }
    }
  }
}